:0D015D00C290B2907FF47E0112013280F555
:0D016A00C297B2977FE87E0312013280F544
:100112001201487E017F5DE4FD1200A47E017F6A28
:100122007D011200A4E4F508784FE6F58102015D35
:1000A400AC07EDC43354E02409F8A604AF06EDC44C
:1000B4003354E0240AF8A607EDC43354E0240AFFBD
:1000C400744F2DF8A60774492DF8E4F6ED25E024C5
:0700D4004BF8E4F608F622E8
:100132007C007D0A12000EE50825E0244BF8A60695
:0601420008A6070200DB25
:1000DB00744F2508F8A6810508E508C39402400370
:1000EB00E4F50874492508F8E6640160EAE508259B
:1000FB00E0244CF9D3E7940019E7940050D9744FDE
:07010B002508F8E6F581224A
:03000B000200638D
:0D006300C0E0C0D075D000C000C001C007D3
:10007000758AF0758CD8E4FFEF25E0244CF9D3E7BE
:10008000940019E79400400DEF25E0244BF808E6B2
:0900900016187001160FBF02DF03
:0B009900D007D001D000D0D0D0E03262
:100148005389F0438901758AF0758CD8C28DD28C99
:05015800D2A9D2AF2284
:0300000002017783
:0C017700787FE4F6D8FD7581500201127B
:10000E00BC000BBE0029EF8DF084FFADF022E4CCD6
:10001E00F875F008EF2FFFEE33FEEC33FCEE9DEC9F
:10002E00984005FCEE9DFE0FD5F0E9E4CEFD22EDE5
:10003E00F8F5F0EE8420D21CFEADF075F008EF2F2F
:10004E00FFED33FD4007985006D5F0F222C398FD20
:05005E000FD5F0EA22BD
:00000001FF
